{
  "fileName": "CeoDemoBds.sol",
  "contractName": "CeoDemoBds",
  "source": "pragma solidity 0.4.24;\r\nimport \"@openzeppelin/upgrades/contracts/Initializable.sol\";\r\n \r\ncontract CeoDemoBds is Initializable{\r\n \r\n    address public manager;\r\n     \r\n    struct certificate {\r\n\t\taddress verifierAddress;\r\n        string  bID;\r\n        string  cID;\r\n        string  evID;\r\n        string  soh;\r\n\t\tstring  grade;\r\n\t\tstring  expirationDate;\r\n\t\tstring  certificateHash;\r\n        bool    isLatest;\r\n    }\r\n    \r\n    mapping(string => mapping(string => certificate)) private certificates;\r\n    mapping(string => string[]) private certificateList;\r\n     \r\n    modifier owneronly {\r\n      require (msg.sender == manager, \"ERROR_NOT_OWNER\");\r\n      _;\r\n    }\r\n\r\n    function initialize() initializer public {\r\n        manager = msg.sender;\r\n    }\r\n    \r\n     \r\n    function createCertificate(string memory _bID, string memory _evID, string memory _soh, string memory _grade, string memory _expirationDate, string  _certificateHash) public owneronly returns(string memory, string memory){\r\n         \r\n        require(bytes(_bID).length > 0 && bytes(_evID).length > 0 && bytes(_soh).length > 0 && bytes(_grade).length > 0 && bytes(_expirationDate).length > 0 && bytes(_certificateHash).length > 0, \"ERROR_PARAMETERS\");\r\n        \r\n\t\tstring memory _cID = string(abi.encodePacked(\"CID_\", _bID, \"_\", _evID, \"_\", _expirationDate));\r\n\t\t\r\n        certificates[_bID][_cID].verifierAddress = msg.sender;\r\n        certificates[_bID][_cID].bID = _bID;\r\n\t    certificates[_bID][_cID].cID = _cID;\r\n        certificates[_bID][_cID].evID = _evID;\r\n        certificates[_bID][_cID].soh = _soh;\r\n\t\tcertificates[_bID][_cID].grade = _grade;\r\n\t\tcertificates[_bID][_cID].expirationDate = _expirationDate;\r\n\t\tcertificates[_bID][_cID].certificateHash = _certificateHash;\r\n        certificates[_bID][_cID].isLatest = true;\r\n         \r\n\t\tfor(uint i=0;i<certificateList[_bID].length;i++) {\r\n            if(certificates[_bID][certificateList[_bID][i]].isLatest == true)\r\n                certificates[_bID][certificateList[_bID][i]].isLatest = false;\r\n        }\r\n\t\t\r\n        certificateList[_bID].push(_cID);\r\n        \r\n        return (_bID, _cID);\r\n    }\r\n     \r\n    function checkOldCertificate(string memory _bID, string memory _cID, string memory _certificateHash) public view returns(bool) {\r\n\t\tif(compareStrings(certificates[_bID][_cID].bID, _bID) == true && compareStrings(certificates[_bID][_cID].cID, _cID) == true && compareStrings(certificates[_bID][_cID].certificateHash, _certificateHash) == true)\r\n\t\t\treturn true;\r\n\t\t\t\r\n        return false;\r\n    }\r\n\t\r\n\tfunction checkLatestCertificate(string memory _bID, string memory _cID, string memory _certificateHash) public view returns(bool) {\r\n\t\tif(compareStrings(certificates[_bID][_cID].bID, _bID) == true && compareStrings(certificates[_bID][_cID].cID, _cID) == true && compareStrings(certificates[_bID][_cID].certificateHash, _certificateHash) == true && certificates[_bID][_cID].isLatest == true)\r\n\t\t\treturn true;\r\n\t\t\t\r\n        return false;\r\n    }\r\n     \r\n    function getcertificateCount(string memory _bID) public view returns(uint) {\r\n        return certificateList[_bID].length;\r\n    }\r\n     \r\n    function certificateInfo(string memory _bID, string memory _cID) public view returns(string memory, string memory, string memory, string memory, string memory, string memory, bool) {\r\n\t  require(certificateList[_bID].length > 0);\r\n         \r\n      certificate memory cc = certificates[_bID][_cID];\r\n      return (cc.bID, cc.cID, cc.evID, cc.grade, cc.expirationDate, cc.certificateHash, cc.isLatest);\r\n    }\r\n     \r\n    function deleteAllData(string memory _bID) public owneronly {\r\n                 \r\n        for(uint i=0;i<certificateList[_bID].length;i++) {\r\n            delete certificates[_bID][certificateList[_bID][i]];\r\n        }\r\n        delete certificateList[_bID];\r\n\r\n    }\r\n \r\n    function compareStrings (string memory a, string memory b) internal pure returns (bool) {\r\n        return (keccak256(abi.encodePacked((a))) == keccak256(abi.encodePacked((b))) );\r\n    }\r\n    \r\n}",
  "sourcePath": "contracts/CeoDemoBds.sol",
  "abi": [
    {
      "constant": true,
      "inputs": [
        {
          "name": "_bID",
          "type": "string"
        },
        {
          "name": "_cID",
          "type": "string"
        },
        {
          "name": "_certificateHash",
          "type": "string"
        }
      ],
      "name": "checkLatestCertificate",
      "outputs": [
        {
          "name": "",
          "type": "bool"
        }
      ],
      "payable": false,
      "stateMutability": "view",
      "type": "function"
    },
    {
      "constant": false,
      "inputs": [
        {
          "name": "_bID",
          "type": "string"
        }
      ],
      "name": "deleteAllData",
      "outputs": [],
      "payable": false,
      "stateMutability": "nonpayable",
      "type": "function"
    },
    {
      "constant": true,
      "inputs": [],
      "name": "manager",
      "outputs": [
        {
          "name": "",
          "type": "address"
        }
      ],
      "payable": false,
      "stateMutability": "view",
      "type": "function"
    },
    {
      "constant": true,
      "inputs": [
        {
          "name": "_bID",
          "type": "string"
        },
        {
          "name": "_cID",
          "type": "string"
        }
      ],
      "name": "certificateInfo",
      "outputs": [
        {
          "name": "",
          "type": "string"
        },
        {
          "name": "",
          "type": "string"
        },
        {
          "name": "",
          "type": "string"
        },
        {
          "name": "",
          "type": "string"
        },
        {
          "name": "",
          "type": "string"
        },
        {
          "name": "",
          "type": "string"
        },
        {
          "name": "",
          "type": "bool"
        }
      ],
      "payable": false,
      "stateMutability": "view",
      "type": "function"
    },
    {
      "constant": false,
      "inputs": [],
      "name": "initialize",
      "outputs": [],
      "payable": false,
      "stateMutability": "nonpayable",
      "type": "function"
    },
    {
      "constant": true,
      "inputs": [
        {
          "name": "_bID",
          "type": "string"
        }
      ],
      "name": "getcertificateCount",
      "outputs": [
        {
          "name": "",
          "type": "uint256"
        }
      ],
      "payable": false,
      "stateMutability": "view",
      "type": "function"
    },
    {
      "constant": false,
      "inputs": [
        {
          "name": "_bID",
          "type": "string"
        },
        {
          "name": "_evID",
          "type": "string"
        },
        {
          "name": "_soh",
          "type": "string"
        },
        {
          "name": "_grade",
          "type": "string"
        },
        {
          "name": "_expirationDate",
          "type": "string"
        },
        {
          "name": "_certificateHash",
          "type": "string"
        }
      ],
      "name": "createCertificate",
      "outputs": [
        {
          "name": "",
          "type": "string"
        },
        {
          "name": "",
          "type": "string"
        }
      ],
      "payable": false,
      "stateMutability": "nonpayable",
      "type": "function"
    },
    {
      "constant": true,
      "inputs": [
        {
          "name": "_bID",
          "type": "string"
        },
        {
          "name": "_cID",
          "type": "string"
        },
        {
          "name": "_certificateHash",
          "type": "string"
        }
      ],
      "name": "checkOldCertificate",
      "outputs": [
        {
          "name": "",
          "type": "bool"
        }
      ],
      "payable": false,
      "stateMutability": "view",
      "type": "function"
    }
  ],
  "bytecode": "0x608060405234801561001057600080fd5b50613438806100206000396000f30060806040526004361061008e576000357c0100000000000000000000000000000000000000000000000000000000900463ffffffff168063139852511461009357806330a2fa40146101a0578063481c6a75146102095780634d02744a146102605780638129fc1c146105af578063a04b66e4146105c6578063d082de6614610643578063fd9ee015146108ef575b600080fd5b34801561009f57600080fd5b50610186600480360381019080803590602001908201803590602001908080601f0160208091040260200160405190810160405280939291908181526020018383808284378201915050505050509192919290803590602001908201803590602001908080601f0160208091040260200160405190810160405280939291908181526020018383808284378201915050505050509192919290803590602001908201803590602001908080601f01602080910402602001604051908101604052809392919081815260200183838082843782019150505050505091929192905050506109fc565b604051808215151515815260200191505060405180910390f35b3480156101ac57600080fd5b50610207600480360381019080803590602001908201803590602001908080601f0160208091040260200160405190810160405280939291908181526020018383808284378201915050505050509192919290505050610f9c565b005b34801561021557600080fd5b5061021e61136f565b604051808273ffffffffffffffffffffffffffffffffffffffff1673ffffffffffffffffffffffffffffffffffffffff16815260200191505060405180910390f35b34801561026c57600080fd5b5061030d600480360381019080803590602001908201803590602001908080601f0160208091040260200160405190810160405280939291908181526020018383808284378201915050505050509192919290803590602001908201803590602001908080601f0160208091040260200160405190810160405280939291908181526020018383808284378201915050505050509192919290505050611395565b604051808060200180602001806020018060200180602001806020018815151515815260200187810387528e818151815260200191508051906020019080838360005b8381101561036b578082015181840152602081019050610350565b50505050905090810190601f1680156103985780820380516001836020036101000a031916815260200191505b5087810386528d818151815260200191508051906020019080838360005b838110156103d15780820151818401526020810190506103b6565b50505050905090810190601f1680156103fe5780820380516001836020036101000a031916815260200191505b5087810385528c818151815260200191508051906020019080838360005b8381101561043757808201518184015260208101905061041c565b50505050905090810190601f1680156104645780820380516001836020036101000a031916815260200191505b5087810384528b818151815260200191508051906020019080838360005b8381101561049d578082015181840152602081019050610482565b50505050905090810190601f1680156104ca5780820380516001836020036101000a031916815260200191505b5087810383528a818151815260200191508051906020019080838360005b838110156105035780820151818401526020810190506104e8565b50505050905090810190601f1680156105305780820380516001836020036101000a031916815260200191505b50878103825289818151815260200191508051906020019080838360005b8381101561056957808201518184015260208101905061054e565b50505050905090810190601f1680156105965780820380516001836020036101000a031916815260200191505b509d505050505050505050505050505060405180910390f35b3480156105bb57600080fd5b506105c4611a38565b005b3480156105d257600080fd5b5061062d600480360381019080803590602001908201803590602001908080601f0160208091040260200160405190810160405280939291908181526020018383808284378201915050505050509192919290505050611bbd565b6040518082815260200191505060405180910390f35b34801561064f57600080fd5b50610808600480360381019080803590602001908201803590602001908080601f0160208091040260200160405190810160405280939291908181526020018383808284378201915050505050509192919290803590602001908201803590602001908080601f0160208091040260200160405190810160405280939291908181526020018383808284378201915050505050509192919290803590602001908201803590602001908080601f0160208091040260200160405190810160405280939291908181526020018383808284378201915050505050509192919290803590602001908201803590602001908080601f0160208091040260200160405190810160405280939291908181526020018383808284378201915050505050509192919290803590602001908201803590602001908080601f0160208091040260200160405190810160405280939291908181526020018383808284378201915050505050509192919290803590602001908201803590602001908080601f0160208091040260200160405190810160405280939291908181526020018383808284378201915050505050509192919290505050611c35565b604051808060200180602001838103835285818151815260200191508051906020019080838360005b8381101561084c578082015181840152602081019050610831565b50505050905090810190601f1680156108795780820380516001836020036101000a031916815260200191505b50838103825284818151815260200191508051906020019080838360005b838110156108b2578082015181840152602081019050610897565b50505050905090810190601f1680156108df5780820380516001836020036101000a031916815260200191505b5094505050505060405180910390f35b3480156108fb57600080fd5b506109e2600480360381019080803590602001908201803590602001908080601f0160208091040260200160405190810160405280939291908181526020018383808284378201915050505050509192919290803590602001908201803590602001908080601f0160208091040260200160405190810160405280939291908181526020018383808284378201915050505050509192919290803590602001908201803590602001908080601f0160208091040260200160405190810160405280939291908181526020018383808284378201915050505050509192919290505050612bf9565b604051808215151515815260200191505060405180910390f35b600060011515610b7b6034866040518082805190602001908083835b602083101515610a3d5780518252602082019150602081019050602083039250610a18565b6001836020036101000a0380198251168184511680821785525050505050509050019150509081526020016040518091039020856040518082805190602001908083835b602083101515610aa65780518252602082019150602081019050602083039250610a81565b6001836020036101000a03801982511681845116808217855250505050505090500191505090815260200160405180910390206001018054600181600116156101000203166002900480601f016020809104026020016040519081016040528092919081815260200182805460018160011615610100020316600290048015610b705780601f10610b4557610100808354040283529160200191610b70565b820191906000526020600020905b815481529060010190602001808311610b5357829003601f168201915b5050505050866130a5565b1515148015610d06575060011515610d026034866040518082805190602001908083835b602083101515610bc45780518252602082019150602081019050602083039250610b9f565b6001836020036101000a0380198251168184511680821785525050505050509050019150509081526020016040518091039020856040518082805190602001908083835b602083101515610c2d5780518252602082019150602081019050602083039250610c08565b6001836020036101000a03801982511681845116808217855250505050505090500191505090815260200160405180910390206002018054600181600116156101000203166002900480601f016020809104026020016040519081016040528092919081815260200182805460018160011615610100020316600290048015610cf75780601f10610ccc57610100808354040283529160200191610cf7565b820191906000526020600020905b815481529060010190602001808311610cda57829003601f168201915b5050505050856130a5565b1515145b8015610e8e575060011515610e8a6034866040518082805190602001908083835b602083101515610d4c5780518252602082019150602081019050602083039250610d27565b6001836020036101000a0380198251168184511680821785525050505050509050019150509081526020016040518091039020856040518082805190602001908083835b602083101515610db55780518252602082019150602081019050602083039250610d90565b6001836020036101000a03801982511681845116808217855250505050505090500191505090815260200160405180910390206007018054600181600116156101000203166002900480601f016020809104026020016040519081016040528092919081815260200182805460018160011615610100020316600290048015610e7f5780601f10610e5457610100808354040283529160200191610e7f565b820191906000526020600020905b815481529060010190602001808311610e6257829003601f168201915b5050505050846130a5565b1515145b8015610f825750600115156034856040518082805190602001908083835b602083101515610ed15780518252602082019150602081019050602083039250610eac565b6001836020036101000a0380198251168184511680821785525050505050509050019150509081526020016040518091039020846040518082805190602001908083835b602083101515610f3a5780518252602082019150602081019050602083039250610f15565b6001836020036101000a038019825116818451168082178552505050505050905001915050908152602001604051809103902060080160009054906101000a900460ff161515145b15610f905760019050610f95565b600090505b9392505050565b6000603360009054906101000a900473ffffffffffffffffffffffffffffffffffffffff1673ffffffffffffffffffffffffffffffffffffffff163373ffffffffffffffffffffffffffffffffffffffff16141515611063576040517f08c379a000000000000000000000000000000000000000000000000000000000815260040180806020018281038252600f8152602001807f4552524f525f4e4f545f4f574e4552000000000000000000000000000000000081525060200191505060405180910390fd5b600090505b6035826040518082805190602001908083835b6020831015156110a0578051825260208201915060208101905060208303925061107b565b6001836020036101000a0380198251168184511680821785525050505050509050019150509081526020016040518091039020805490508110156112f4576034826040518082805190602001908083835b60208310151561111657805182526020820191506020810190506020830392506110f1565b6001836020036101000a03801982511681845116808217855250505050505090500191505090815260200160405180910390206035836040518082805190602001908083835b602083101515611181578051825260208201915060208101905060208303925061115c565b6001836020036101000a0380198251168184511680821785525050505050509050019150509081526020016040518091039020828154811015156111c157fe5b9060005260206000200160405180828054600181600116156101000203166002900480156112265780601f10611204576101008083540402835291820191611226565b820191906000526020600020905b815481529060010190602001808311611212575b50509150509081526020016040518091039020600080820160006101000a81549073ffffffffffffffffffffffffffffffffffffffff0219169055600182016000611271919061326d565b600282016000611281919061326d565b600382016000611291919061326d565b6004820160006112a1919061326d565b6005820160006112b1919061326d565b6006820160006112c1919061326d565b6007820160006112d1919061326d565b6008820160006101000a81549060ff021916905550508080600101915050611068565b6035826040518082805190602001908083835b60208310151561132c5780518252602082019150602081019050602083039250611307565b6001836020036101000a0380198251168184511680821785525050505050509050019150509081526020016040518091039020600061136b91906132b5565b5050565b603360009054906101000a900473ffffffffffffffffffffffffffffffffffffffff1681565b60608060608060608060006113a86132d6565b600060358b6040518082805190602001908083835b6020831015156113e257805182526020820191506020810190506020830392506113bd565b6001836020036101000a03801982511681845116808217855250505050505090500191505090815260200160405180910390208054905011151561142557600080fd5b60348a6040518082805190602001908083835b60208310151561145d5780518252602082019150602081019050602083039250611438565b6001836020036101000a0380198251168184511680821785525050505050509050019150509081526020016040518091039020896040518082805190602001908083835b6020831015156114c657805182526020820191506020810190506020830392506114a1565b6001836020036101000a038019825116818451168082178552505050505050905001915050908152602001604051809103902061012060405190810160405290816000820160009054906101000a900473ffffffffffffffffffffffffffffffffffffffff1673ffffffffffffffffffffffffffffffffffffffff1673ffffffffffffffffffffffffffffffffffffffff168152602001600182018054600181600116156101000203166002900480601f0160208091040260200160405190810160405280929190818152602001828054600181600116156101000203166002900480156115f55780601f106115ca576101008083540402835291602001916115f5565b820191906000526020600020905b8154815290600101906020018083116115d857829003601f168201915b50505050508152602001600282018054600181600116156101000203166002900480601f0160208091040260200160405190810160405280929190818152602001828054600181600116156101000203166002900480156116975780601f1061166c57610100808354040283529160200191611697565b820191906000526020600020905b81548152906001019060200180831161167a57829003601f168201915b50505050508152602001600382018054600181600116156101000203166002900480601f0160208091040260200160405190810160405280929190818152602001828054600181600116156101000203166002900480156117395780601f1061170e57610100808354040283529160200191611739565b820191906000526020600020905b81548152906001019060200180831161171c57829003601f168201915b50505050508152602001600482018054600181600116156101000203166002900480601f0160208091040260200160405190810160405280929190818152602001828054600181600116156101000203166002900480156117db5780601f106117b0576101008083540402835291602001916117db565b820191906000526020600020905b8154815290600101906020018083116117be57829003601f168201915b50505050508152602001600582018054600181600116156101000203166002900480601f01602080910402602001604051908101604052809291908181526020018280546001816001161561010002031660029004801561187d5780601f106118525761010080835404028352916020019161187d565b820191906000526020600020905b81548152906001019060200180831161186057829003601f168201915b50505050508152602001600682018054600181600116156101000203166002900480601f01602080910402602001604051908101604052809291908181526020018280546001816001161561010002031660029004801561191f5780601f106118f45761010080835404028352916020019161191f565b820191906000526020600020905b81548152906001019060200180831161190257829003601f168201915b50505050508152602001600782018054600181600116156101000203166002900480601f0160208091040260200160405190810160405280929190818152602001828054600181600116156101000203166002900480156119c15780601f10611996576101008083540402835291602001916119c1565b820191906000526020600020905b8154815290600101906020018083116119a457829003601f168201915b505050505081526020016008820160009054906101000a900460ff16151515158152505090508060200151816040015182606001518360a001518460c001518560e0015186610100015186965085955084945083935082925081915097509750975097509750975097505092959891949750929550565b60008060019054906101000a900460ff1680611a585750611a57613256565b5b80611a6f57506000809054906101000a900460ff16155b1515611b09576040517f08c379a000000000000000000000000000000000000000000000000000000000815260040180806020018281038252602e8152602001807f436f6e747261637420696e7374616e63652068617320616c726561647920626581526020017f656e20696e697469616c697a656400000000000000000000000000000000000081525060400191505060405180910390fd5b600060019054906101000a900460ff161590508015611b58576001600060016101000a81548160ff02191690831515021790555060016000806101000a81548160ff0219169083151502179055505b33603360006101000a81548173ffffffffffffffffffffffffffffffffffffffff021916908373ffffffffffffffffffffffffffffffffffffffff1602179055508015611bba5760008060016101000a81548160ff0219169083151502179055505b50565b60006035826040518082805190602001908083835b602083101515611bf75780518252602082019150602081019050602083039250611bd2565b6001836020036101000a0380198251168184511680821785525050505050509050019150509081526020016040518091039020805490509050919050565b60608060606000603360009054906101000a900473ffffffffffffffffffffffffffffffffffffffff1673ffffffffffffffffffffffffffffffffffffffff163373ffffffffffffffffffffffffffffffffffffffff16141515611d01576040517f08c379a000000000000000000000000000000000000000000000000000000000815260040180806020018281038252600f8152602001807f4552524f525f4e4f545f4f574e4552000000000000000000000000000000000081525060200191505060405180910390fd5b60008a51118015611d13575060008951115b8015611d20575060008851115b8015611d2d575060008751115b8015611d3a575060008651115b8015611d47575060008551115b1515611dbb576040517f08c379a00000000000000000000000000000000000000000000000000000000081526004018080602001828103825260108152602001807f4552524f525f504152414d45544552530000000000000000000000000000000081525060200191505060405180910390fd5b89898760405160200180807f4349445f0000000000000000000000000000000000000000000000000000000081525060040184805190602001908083835b602083101515611e1e5780518252602082019150602081019050602083039250611df9565b6001836020036101000a038019825116818451168082178552505050505050905001807f5f0000000000000000000000000000000000000000000000000000000000000081525060010183805190602001908083835b602083101515611e995780518252602082019150602081019050602083039250611e74565b6001836020036101000a038019825116818451168082178552505050505050905001807f5f0000000000000000000000000000000000000000000000000000000000000081525060010182805190602001908083835b602083101515611f145780518252602082019150602081019050602083039250611eef565b6001836020036101000a038019825116818451168082178552505050505050905001935050505060405160208183030381529060405291503360348b6040518082805190602001908083835b602083101515611f855780518252602082019150602081019050602083039250611f60565b6001836020036101000a0380198251168184511680821785525050505050509050019150509081526020016040518091039020836040518082805190602001908083835b602083101515611fee5780518252602082019150602081019050602083039250611fc9565b6001836020036101000a038019825116818451168082178552505050505050905001915050908152602001604051809103902060000160006101000a81548173ffffffffffffffffffffffffffffffffffffffff021916908373ffffffffffffffffffffffffffffffffffffffff1602179055508960348b6040518082805190602001908083835b60208310151561209b5780518252602082019150602081019050602083039250612076565b6001836020036101000a0380198251168184511680821785525050505050509050019150509081526020016040518091039020836040518082805190602001908083835b60208310151561210457805182526020820191506020810190506020830392506120df565b6001836020036101000a0380198251168184511680821785525050505050509050019150509081526020016040518091039020600101908051906020019061214d92919061333b565b508160348b6040518082805190602001908083835b6020831015156121875780518252602082019150602081019050602083039250612162565b6001836020036101000a0380198251168184511680821785525050505050509050019150509081526020016040518091039020836040518082805190602001908083835b6020831015156121f057805182526020820191506020810190506020830392506121cb565b6001836020036101000a0380198251168184511680821785525050505050509050019150509081526020016040518091039020600201908051906020019061223992919061333b565b508860348b6040518082805190602001908083835b602083101515612273578051825260208201915060208101905060208303925061224e565b6001836020036101000a0380198251168184511680821785525050505050509050019150509081526020016040518091039020836040518082805190602001908083835b6020831015156122dc57805182526020820191506020810190506020830392506122b7565b6001836020036101000a0380198251168184511680821785525050505050509050019150509081526020016040518091039020600301908051906020019061232592919061333b565b508760348b6040518082805190602001908083835b60208310151561235f578051825260208201915060208101905060208303925061233a565b6001836020036101000a0380198251168184511680821785525050505050509050019150509081526020016040518091039020836040518082805190602001908083835b6020831015156123c857805182526020820191506020810190506020830392506123a3565b6001836020036101000a0380198251168184511680821785525050505050509050019150509081526020016040518091039020600401908051906020019061241192919061333b565b508660348b6040518082805190602001908083835b60208310151561244b5780518252602082019150602081019050602083039250612426565b6001836020036101000a0380198251168184511680821785525050505050509050019150509081526020016040518091039020836040518082805190602001908083835b6020831015156124b4578051825260208201915060208101905060208303925061248f565b6001836020036101000a038019825116818451168082178552505050505050905001915050908152602001604051809103902060050190805190602001906124fd92919061333b565b508560348b6040518082805190602001908083835b6020831015156125375780518252602082019150602081019050602083039250612512565b6001836020036101000a0380198251168184511680821785525050505050509050019150509081526020016040518091039020836040518082805190602001908083835b6020831015156125a0578051825260208201915060208101905060208303925061257b565b6001836020036101000a038019825116818451168082178552505050505050905001915050908152602001604051809103902060060190805190602001906125e992919061333b565b508460348b6040518082805190602001908083835b60208310151561262357805182526020820191506020810190506020830392506125fe565b6001836020036101000a0380198251168184511680821785525050505050509050019150509081526020016040518091039020836040518082805190602001908083835b60208310151561268c5780518252602082019150602081019050602083039250612667565b6001836020036101000a038019825116818451168082178552505050505050905001915050908152602001604051809103902060070190805190602001906126d592919061333b565b50600160348b6040518082805190602001908083835b60208310151561271057805182526020820191506020810190506020830392506126eb565b6001836020036101000a0380198251168184511680821785525050505050509050019150509081526020016040518091039020836040518082805190602001908083835b6020831015156127795780518252602082019150602081019050602083039250612754565b6001836020036101000a038019825116818451168082178552505050505050905001915050908152602001604051809103902060080160006101000a81548160ff021916908315150217905550600090505b60358a6040518082805190602001908083835b60208310151561280357805182526020820191506020810190506020830392506127de565b6001836020036101000a038019825116818451168082178552505050505050905001915050908152602001604051809103902080549050811015612b3e576001151560348b6040518082805190602001908083835b60208310151561287d5780518252602082019150602081019050602083039250612858565b6001836020036101000a038019825116818451168082178552505050505050905001915050908152602001604051809103902060358c6040518082805190602001908083835b6020831015156128e857805182526020820191506020810190506020830392506128c3565b6001836020036101000a03801982511681845116808217855250505050505090500191505090815260200160405180910390208381548110151561292857fe5b90600052602060002001604051808280546001816001161561010002031660029004801561298d5780601f1061296b57610100808354040283529182019161298d565b820191906000526020600020905b815481529060010190602001808311612979575b5050915050908152602001604051809103902060080160009054906101000a900460ff1615151415612b3157600060348b6040518082805190602001908083835b6020831015156129f357805182526020820191506020810190506020830392506129ce565b6001836020036101000a038019825116818451168082178552505050505050905001915050908152602001604051809103902060358c6040518082805190602001908083835b602083101515612a5e5780518252602082019150602081019050602083039250612a39565b6001836020036101000a038019825116818451168082178552505050505050905001915050908152602001604051809103902083815481101515612a9e57fe5b906000526020600020016040518082805460018160011615610100020316600290048015612b035780601f10612ae1576101008083540402835291820191612b03565b820191906000526020600020905b815481529060010190602001808311612aef575b5050915050908152602001604051809103902060080160006101000a81548160ff0219169083151502179055505b80806001019150506127cb565b60358a6040518082805190602001908083835b602083101515612b765780518252602082019150602081019050602083039250612b51565b6001836020036101000a0380198251168184511680821785525050505050509050019150509081526020016040518091039020829080600181540180825580915050906001820390600052602060002001600090919290919091509080519060200190612be492919061333b565b50508982935093505050965096945050505050565b600060011515612d786034866040518082805190602001908083835b602083101515612c3a5780518252602082019150602081019050602083039250612c15565b6001836020036101000a0380198251168184511680821785525050505050509050019150509081526020016040518091039020856040518082805190602001908083835b602083101515612ca35780518252602082019150602081019050602083039250612c7e565b6001836020036101000a03801982511681845116808217855250505050505090500191505090815260200160405180910390206001018054600181600116156101000203166002900480601f016020809104026020016040519081016040528092919081815260200182805460018160011615610100020316600290048015612d6d5780601f10612d4257610100808354040283529160200191612d6d565b820191906000526020600020905b815481529060010190602001808311612d5057829003601f168201915b5050505050866130a5565b1515148015612f03575060011515612eff6034866040518082805190602001908083835b602083101515612dc15780518252602082019150602081019050602083039250612d9c565b6001836020036101000a0380198251168184511680821785525050505050509050019150509081526020016040518091039020856040518082805190602001908083835b602083101515612e2a5780518252602082019150602081019050602083039250612e05565b6001836020036101000a03801982511681845116808217855250505050505090500191505090815260200160405180910390206002018054600181600116156101000203166002900480601f016020809104026020016040519081016040528092919081815260200182805460018160011615610100020316600290048015612ef45780601f10612ec957610100808354040283529160200191612ef4565b820191906000526020600020905b815481529060010190602001808311612ed757829003601f168201915b5050505050856130a5565b1515145b801561308b5750600115156130876034866040518082805190602001908083835b602083101515612f495780518252602082019150602081019050602083039250612f24565b6001836020036101000a0380198251168184511680821785525050505050509050019150509081526020016040518091039020856040518082805190602001908083835b602083101515612fb25780518252602082019150602081019050602083039250612f8d565b6001836020036101000a03801982511681845116808217855250505050505090500191505090815260200160405180910390206007018054600181600116156101000203166002900480601f01602080910402602001604051908101604052809291908181526020018280546001816001161561010002031660029004801561307c5780601f106130515761010080835404028352916020019161307c565b820191906000526020600020905b81548152906001019060200180831161305f57829003601f168201915b5050505050846130a5565b1515145b15613099576001905061309e565b600090505b9392505050565b6000816040516020018082805190602001908083835b6020831015156130e057805182526020820191506020810190506020830392506130bb565b6001836020036101000a0380198251168184511680821785525050505050509050019150506040516020818303038152906040526040518082805190602001908083835b6020831015156131495780518252602082019150602081019050602083039250613124565b6001836020036101000a038019825116818451168082178552505050505050905001915050604051809103902060001916836040516020018082805190602001908083835b6020831015156131b3578051825260208201915060208101905060208303925061318e565b6001836020036101000a0380198251168184511680821785525050505050509050019150506040516020818303038152906040526040518082805190602001908083835b60208310151561321c57805182526020820191506020810190506020830392506131f7565b6001836020036101000a03801982511681845116808217855250505050505090500191505060405180910390206000191614905092915050565b6000806000309150813b9050600081149250505090565b50805460018160011615610100020316600290046000825580601f1061329357506132b2565b601f0160209004906000526020600020908101906132b191906133bb565b5b50565b50805460008255906000526020600020908101906132d391906133e0565b50565b61012060405190810160405280600073ffffffffffffffffffffffffffffffffffffffff168152602001606081526020016060815260200160608152602001606081526020016060815260200160608152602001606081526020016000151581525090565b828054600181600116156101000203166002900490600052602060002090601f016020900481019282601f1061337c57805160ff19168380011785556133aa565b828001600101855582156133aa579182015b828111156133a957825182559160200191906001019061338e565b5b5090506133b791906133bb565b5090565b6133dd91905b808211156133d95760008160009055506001016133c1565b5090565b90565b61340991905b8082111561340557600081816133fc919061326d565b506001016133e6565b5090565b905600a165627a7a7230582090db74378ebaedee227a918123f37b75f116135c0fabbd4d0c4b2e9233b80a400029",
  "compiler": {
    "name": "solc",
    "version": "0.4.24+commit.e67f0147.Emscripten.clang",
    "optimizer": {
      "enabled": false,
      "runs": 200
    },
    "evmVersion": "byzantium"
  }
}